{
  "contractName": "BankToken",
  "abi": [
    {
      "inputs": [
        {
          "internalType": "uint256",
          "name": "_tDposit",
          "type": "uint256"
        }
      ],
      "stateMutability": "payable",
      "type": "constructor",
      "payable": true
    },
    {
      "anonymous": false,
      "inputs": [
        {
          "indexed": true,
          "internalType": "address",
          "name": "owner",
          "type": "address"
        },
        {
          "indexed": true,
          "internalType": "address",
          "name": "spender",
          "type": "address"
        },
        {
          "indexed": false,
          "internalType": "uint256",
          "name": "value",
          "type": "uint256"
        }
      ],
      "name": "Approval",
      "type": "event"
    },
    {
      "anonymous": false,
      "inputs": [
        {
          "indexed": true,
          "internalType": "address",
          "name": "from",
          "type": "address"
        },
        {
          "indexed": false,
          "internalType": "uint256",
          "name": "value",
          "type": "uint256"
        }
      ],
      "name": "Deposite",
      "type": "event"
    },
    {
      "anonymous": false,
      "inputs": [
        {
          "indexed": true,
          "internalType": "address",
          "name": "from",
          "type": "address"
        },
        {
          "indexed": true,
          "internalType": "address",
          "name": "to",
          "type": "address"
        },
        {
          "indexed": false,
          "internalType": "uint256",
          "name": "value",
          "type": "uint256"
        }
      ],
      "name": "Transfer",
      "type": "event"
    },
    {
      "anonymous": false,
      "inputs": [
        {
          "indexed": true,
          "internalType": "address",
          "name": "to",
          "type": "address"
        },
        {
          "indexed": false,
          "internalType": "uint256",
          "name": "value",
          "type": "uint256"
        }
      ],
      "name": "Withdrawal",
      "type": "event"
    },
    {
      "inputs": [
        {
          "internalType": "address",
          "name": "",
          "type": "address"
        }
      ],
      "name": "Balance",
      "outputs": [
        {
          "internalType": "uint256",
          "name": "",
          "type": "uint256"
        }
      ],
      "stateMutability": "view",
      "type": "function",
      "constant": true
    },
    {
      "inputs": [
        {
          "internalType": "address",
          "name": "owner",
          "type": "address"
        },
        {
          "internalType": "address",
          "name": "spender",
          "type": "address"
        }
      ],
      "name": "allowance",
      "outputs": [
        {
          "internalType": "uint256",
          "name": "",
          "type": "uint256"
        }
      ],
      "stateMutability": "view",
      "type": "function",
      "constant": true
    },
    {
      "inputs": [],
      "name": "amount23",
      "outputs": [
        {
          "internalType": "uint256",
          "name": "",
          "type": "uint256"
        }
      ],
      "stateMutability": "view",
      "type": "function",
      "constant": true
    },
    {
      "inputs": [],
      "name": "amount34",
      "outputs": [
        {
          "internalType": "uint256",
          "name": "",
          "type": "uint256"
        }
      ],
      "stateMutability": "view",
      "type": "function",
      "constant": true
    },
    {
      "inputs": [],
      "name": "amount4",
      "outputs": [
        {
          "internalType": "uint256",
          "name": "",
          "type": "uint256"
        }
      ],
      "stateMutability": "view",
      "type": "function",
      "constant": true
    },
    {
      "inputs": [
        {
          "internalType": "address",
          "name": "spender",
          "type": "address"
        },
        {
          "internalType": "uint256",
          "name": "amount",
          "type": "uint256"
        }
      ],
      "name": "approve",
      "outputs": [
        {
          "internalType": "bool",
          "name": "",
          "type": "bool"
        }
      ],
      "stateMutability": "nonpayable",
      "type": "function"
    },
    {
      "inputs": [
        {
          "internalType": "address",
          "name": "account",
          "type": "address"
        }
      ],
      "name": "balanceOf",
      "outputs": [
        {
          "internalType": "uint256",
          "name": "",
          "type": "uint256"
        }
      ],
      "stateMutability": "view",
      "type": "function",
      "constant": true
    },
    {
      "inputs": [],
      "name": "decimals",
      "outputs": [
        {
          "internalType": "uint8",
          "name": "",
          "type": "uint8"
        }
      ],
      "stateMutability": "view",
      "type": "function",
      "constant": true
    },
    {
      "inputs": [
        {
          "internalType": "address",
          "name": "spender",
          "type": "address"
        },
        {
          "internalType": "uint256",
          "name": "subtractedValue",
          "type": "uint256"
        }
      ],
      "name": "decreaseAllowance",
      "outputs": [
        {
          "internalType": "bool",
          "name": "",
          "type": "bool"
        }
      ],
      "stateMutability": "nonpayable",
      "type": "function"
    },
    {
      "inputs": [
        {
          "internalType": "address",
          "name": "spender",
          "type": "address"
        },
        {
          "internalType": "uint256",
          "name": "addedValue",
          "type": "uint256"
        }
      ],
      "name": "increaseAllowance",
      "outputs": [
        {
          "internalType": "bool",
          "name": "",
          "type": "bool"
        }
      ],
      "stateMutability": "nonpayable",
      "type": "function"
    },
    {
      "inputs": [],
      "name": "name",
      "outputs": [
        {
          "internalType": "string",
          "name": "",
          "type": "string"
        }
      ],
      "stateMutability": "view",
      "type": "function",
      "constant": true
    },
    {
      "inputs": [],
      "name": "owner",
      "outputs": [
        {
          "internalType": "address",
          "name": "",
          "type": "address"
        }
      ],
      "stateMutability": "view",
      "type": "function",
      "constant": true
    },
    {
      "inputs": [],
      "name": "rToken",
      "outputs": [
        {
          "internalType": "uint256",
          "name": "",
          "type": "uint256"
        }
      ],
      "stateMutability": "view",
      "type": "function",
      "constant": true
    },
    {
      "inputs": [],
      "name": "reward1Rem",
      "outputs": [
        {
          "internalType": "uint256",
          "name": "",
          "type": "uint256"
        }
      ],
      "stateMutability": "view",
      "type": "function",
      "constant": true
    },
    {
      "inputs": [],
      "name": "rewardT23",
      "outputs": [
        {
          "internalType": "uint256",
          "name": "",
          "type": "uint256"
        }
      ],
      "stateMutability": "view",
      "type": "function",
      "constant": true
    },
    {
      "inputs": [],
      "name": "rewardT34",
      "outputs": [
        {
          "internalType": "uint256",
          "name": "",
          "type": "uint256"
        }
      ],
      "stateMutability": "view",
      "type": "function",
      "constant": true
    },
    {
      "inputs": [],
      "name": "rewardT4",
      "outputs": [
        {
          "internalType": "uint256",
          "name": "",
          "type": "uint256"
        }
      ],
      "stateMutability": "view",
      "type": "function",
      "constant": true
    },
    {
      "inputs": [],
      "name": "symbol",
      "outputs": [
        {
          "internalType": "string",
          "name": "",
          "type": "string"
        }
      ],
      "stateMutability": "view",
      "type": "function",
      "constant": true
    },
    {
      "inputs": [],
      "name": "t0Deploy",
      "outputs": [
        {
          "internalType": "uint256",
          "name": "",
          "type": "uint256"
        }
      ],
      "stateMutability": "view",
      "type": "function",
      "constant": true
    },
    {
      "inputs": [],
      "name": "t2Dposit",
      "outputs": [
        {
          "internalType": "uint256",
          "name": "",
          "type": "uint256"
        }
      ],
      "stateMutability": "view",
      "type": "function",
      "constant": true
    },
    {
      "inputs": [],
      "name": "t3Dposit",
      "outputs": [
        {
          "internalType": "uint256",
          "name": "",
          "type": "uint256"
        }
      ],
      "stateMutability": "view",
      "type": "function",
      "constant": true
    },
    {
      "inputs": [],
      "name": "t4Dposit",
      "outputs": [
        {
          "internalType": "uint256",
          "name": "",
          "type": "uint256"
        }
      ],
      "stateMutability": "view",
      "type": "function",
      "constant": true
    },
    {
      "inputs": [],
      "name": "tDposit",
      "outputs": [
        {
          "internalType": "uint256",
          "name": "",
          "type": "uint256"
        }
      ],
      "stateMutability": "view",
      "type": "function",
      "constant": true
    },
    {
      "inputs": [],
      "name": "totalDeposit",
      "outputs": [
        {
          "internalType": "uint256",
          "name": "",
          "type": "uint256"
        }
      ],
      "stateMutability": "view",
      "type": "function",
      "constant": true
    },
    {
      "inputs": [],
      "name": "totalSupply",
      "outputs": [
        {
          "internalType": "uint256",
          "name": "",
          "type": "uint256"
        }
      ],
      "stateMutability": "view",
      "type": "function",
      "constant": true
    },
    {
      "inputs": [
        {
          "internalType": "address",
          "name": "to",
          "type": "address"
        },
        {
          "internalType": "uint256",
          "name": "amount",
          "type": "uint256"
        }
      ],
      "name": "transfer",
      "outputs": [
        {
          "internalType": "bool",
          "name": "",
          "type": "bool"
        }
      ],
      "stateMutability": "nonpayable",
      "type": "function"
    },
    {
      "inputs": [
        {
          "internalType": "address",
          "name": "from",
          "type": "address"
        },
        {
          "internalType": "address",
          "name": "to",
          "type": "address"
        },
        {
          "internalType": "uint256",
          "name": "amount",
          "type": "uint256"
        }
      ],
      "name": "transferFrom",
      "outputs": [
        {
          "internalType": "bool",
          "name": "",
          "type": "bool"
        }
      ],
      "stateMutability": "nonpayable",
      "type": "function"
    },
    {
      "inputs": [],
      "name": "deposite",
      "outputs": [
        {
          "internalType": "bool",
          "name": "",
          "type": "bool"
        }
      ],
      "stateMutability": "payable",
      "type": "function",
      "payable": true
    },
    {
      "inputs": [
        {
          "internalType": "uint256",
          "name": "_amount",
          "type": "uint256"
        }
      ],
      "name": "withdrawal",
      "outputs": [
        {
          "internalType": "bool",
          "name": "",
          "type": "bool"
        }
      ],
      "stateMutability": "payable",
      "type": "function",
      "payable": true
    },
    {
      "inputs": [],
      "name": "withdrawRemainRwrd",
      "outputs": [
        {
          "internalType": "bool",
          "name": "",
          "type": "bool"
        }
      ],
      "stateMutability": "payable",
      "type": "function",
      "payable": true
    }
  ],
  "bytecode": "0x608060405260405162002d7438038062002d74833981810160405281019062000029919062000325565b6040518060400160405280600581526020017f41545241430000000000000000000000000000000000000000000000000000008152506040518060400160405280600381526020017f4d544b00000000000000000000000000000000000000000000000000000000008152508160039080519060200190620000ad92919062000235565b508060049080519060200190620000c692919062000235565b50505033600560006101000a81548173ffffffffffffffffffffffffffffffffffffffff021916908373ffffffffffffffffffffffffffffffffffffffff1602179055506000341162000150576040517f08c379a00000000000000000000000000000000000000000000000000000000081526004016200014790620003b8565b60405180910390fd5b3073ffffffffffffffffffffffffffffffffffffffff166108fc349081150290604051600060405180830381858888f1935050505015801562000197573d6000803e3d6000fd5b50346006819055504260078190555080600881905550620001ca60026008546200021d60201b620016cf1790919060201c565b600981905550620001ed60036008546200021d60201b620016cf1790919060201c565b600a819055506200021060046008546200021d60201b620016cf1790919060201c565b600b8190555050620004cf565b600081836200022d919062000409565b905092915050565b828054620002439062000499565b90600052602060002090601f016020900481019282620002675760008555620002b3565b82601f106200028257805160ff1916838001178555620002b3565b82800160010185558215620002b3579182015b82811115620002b257825182559160200191906001019062000295565b5b509050620002c29190620002c6565b5090565b5b80821115620002e1576000816000905550600101620002c7565b5090565b600080fd5b6000819050919050565b620002ff81620002ea565b81146200030b57600080fd5b50565b6000815190506200031f81620002f4565b92915050565b6000602082840312156200033e576200033d620002e5565b5b60006200034e848285016200030e565b91505092915050565b600082825260208201905092915050565b7f496e76616c69642072657761726420706f6f6c27732076616c75650000000000600082015250565b6000620003a0601b8362000357565b9150620003ad8262000368565b602082019050919050565b60006020820190508181036000830152620003d38162000391565b9050919050565b7f4e487b7100000000000000000000000000000000000000000000000000000000600052601160045260246000fd5b60006200041682620002ea565b91506200042383620002ea565b9250817fffffffffffffffffffffffffffffffffffffffffffffffffffffffffffffffff04831182151516156200045f576200045e620003da565b5b828202905092915050565b7f4e487b7100000000000000000000000000000000000000000000000000000000600052602260045260246000fd5b60006002820490506001821680620004b257607f821691505b60208210811415620004c957620004c86200046a565b5b50919050565b61289580620004df6000396000f3fe6080604052600436106101cd5760003560e01c806386f883e8116100f7578063ac36c04311610095578063d84540a811610064578063d84540a814610699578063dd62ed3e146106c4578063ef50498514610701578063f6153ccd1461072c576101cd565b8063ac36c043146105fa578063b6fbe82f14610618578063cd4fd3d514610643578063d4a2a2dd1461066e576101cd565b8063a457c2d7116100d1578063a457c2d714610537578063a50ec32614610574578063a8d94c8314610592578063a9059cbb146105bd576101cd565b806386f883e8146104b65780638da5cb5b146104e157806395d89b411461050c576101cd565b8063313ce5671161016f578063438120ba1161013e578063438120ba146103f357806359118ff21461041e57806370a0823114610449578063835fc6ca14610486576101cd565b8063313ce5671461033557806339509351146103605780633aaaea581461039d57806340c65f72146103c8576101cd565b806318160ddd116101ab57806318160ddd14610265578063239fcf0f1461029057806323b872dd146102cd57806327dabec31461030a576101cd565b8063058ee0ea146101d257806306fdde03146101fd578063095ea7b314610228575b600080fd5b3480156101de57600080fd5b506101e7610757565b6040516101f49190611c2a565b60405180910390f35b34801561020957600080fd5b5061021261075d565b60405161021f9190611cde565b60405180910390f35b34801561023457600080fd5b5061024f600480360381019061024a9190611d8f565b6107ef565b60405161025c9190611dea565b60405180910390f35b34801561027157600080fd5b5061027a610812565b6040516102879190611c2a565b60405180910390f35b34801561029c57600080fd5b506102b760048036038101906102b29190611e05565b61081c565b6040516102c49190611c2a565b60405180910390f35b3480156102d957600080fd5b506102f460048036038101906102ef9190611e32565b610834565b6040516103019190611dea565b60405180910390f35b34801561031657600080fd5b5061031f610863565b60405161032c9190611c2a565b60405180910390f35b34801561034157600080fd5b5061034a610869565b6040516103579190611ea1565b60405180910390f35b34801561036c57600080fd5b5061038760048036038101906103829190611d8f565b610872565b6040516103949190611dea565b60405180910390f35b3480156103a957600080fd5b506103b261091c565b6040516103bf9190611c2a565b60405180910390f35b3480156103d457600080fd5b506103dd610922565b6040516103ea9190611c2a565b60405180910390f35b3480156103ff57600080fd5b50610408610928565b6040516104159190611c2a565b60405180910390f35b34801561042a57600080fd5b5061043361092e565b6040516104409190611c2a565b60405180910390f35b34801561045557600080fd5b50610470600480360381019061046b9190611e05565b610934565b60405161047d9190611c2a565b60405180910390f35b6104a0600480360381019061049b9190611ebc565b61097c565b6040516104ad9190611dea565b60405180910390f35b3480156104c257600080fd5b506104cb6110c7565b6040516104d89190611c2a565b60405180910390f35b3480156104ed57600080fd5b506104f66110cd565b6040516105039190611ef8565b60405180910390f35b34801561051857600080fd5b506105216110f3565b60405161052e9190611cde565b60405180910390f35b34801561054357600080fd5b5061055e60048036038101906105599190611d8f565b611185565b60405161056b9190611dea565b60405180910390f35b61057c61126f565b6040516105899190611dea565b60405180910390f35b34801561059e57600080fd5b506105a7611474565b6040516105b49190611c2a565b60405180910390f35b3480156105c957600080fd5b506105e460048036038101906105df9190611d8f565b61147a565b6040516105f19190611dea565b60405180910390f35b61060261149d565b60405161060f9190611dea565b60405180910390f35b34801561062457600080fd5b5061062d611624565b60405161063a9190611c2a565b60405180910390f35b34801561064f57600080fd5b5061065861162a565b6040516106659190611c2a565b60405180910390f35b34801561067a57600080fd5b50610683611630565b6040516106909190611c2a565b60405180910390f35b3480156106a557600080fd5b506106ae611636565b6040516106bb9190611c2a565b60405180910390f35b3480156106d057600080fd5b506106eb60048036038101906106e69190611f13565b61163c565b6040516106f89190611c2a565b60405180910390f35b34801561070d57600080fd5b506107166116c3565b6040516107239190611c2a565b60405180910390f35b34801561073857600080fd5b506107416116c9565b60405161074e9190611c2a565b60405180910390f35b600b5481565b60606003805461076c90611f82565b80601f016020809104026020016040519081016040528092919081815260200182805461079890611f82565b80156107e55780601f106107ba576101008083540402835291602001916107e5565b820191906000526020600020905b8154815290600101906020018083116107c857829003601f168201915b5050505050905090565b6000806107fa6116e5565b90506108078185856116ed565b600191505092915050565b6000600254905090565b60146020528060005260406000206000915090505481565b60008061083f6116e5565b905061084c8582856118b8565b610857858585611944565b60019150509392505050565b600d5481565b60006012905090565b60008061087d6116e5565b9050610911818585600160008673ffffffffffffffffffffffffffffffffffffffff1673ffffffffffffffffffffffffffffffffffffffff16815260200190815260200160002060008973ffffffffffffffffffffffffffffffffffffffff1673ffffffffffffffffffffffffffffffffffffffff1681526020019081526020016000205461090c9190611fe3565b6116ed565b600191505092915050565b60085481565b60065481565b60095481565b600f5481565b60008060008373ffffffffffffffffffffffffffffffffffffffff1673ffffffffffffffffffffffffffffffffffffffff168152602001908152602001600020549050919050565b600080610996600954600754611bc590919063ffffffff16565b905060006109b1600a54600754611bc590919063ffffffff16565b905060006109cc600b54600754611bc590919063ffffffff16565b905060006109f960646109eb60146006546116cf90919063ffffffff16565b611bdb90919063ffffffff16565b90506000610a266064610a18601e6006546116cf90919063ffffffff16565b611bdb90919063ffffffff16565b905086601460003373ffffffffffffffffffffffffffffffffffffffff1673ffffffffffffffffffffffffffffffffffffffff168152602001908152602001600020541015610aaa576040517f08c379a0000000000000000000000000000000000000000000000000000000008152600401610aa190612085565b60405180910390fd5b428510610aec576040517f08c379a0000000000000000000000000000000000000000000000000000000008152600401610ae3906120f1565b60405180910390fd5b428511158015610afc5750834211155b15610ce457610b67600c54610b59601460003373ffffffffffffffffffffffffffffffffffffffff1673ffffffffffffffffffffffffffffffffffffffff16815260200190815260200160002054856116cf90919063ffffffff16565b611bdb90919063ffffffff16565b60118190555086601460003373ffffffffffffffffffffffffffffffffffffffff1673ffffffffffffffffffffffffffffffffffffffff1681526020019081526020016000206000828254610bbc9190612111565b9250508190555086600c6000828254610bd59190612111565b92505081905550610bf160115488611bc590919063ffffffff16565b600d8190555047600d541115610c0d5786600d81905550610c2b565b610c24601154600654611bf190919063ffffffff16565b6006819055505b610c4060115483611bf190919063ffffffff16565b6010819055503373ffffffffffffffffffffffffffffffffffffffff166108fc600d549081150290604051600060405180830381858888f19350505050158015610c8e573d6000803e3d6000fd5b503373ffffffffffffffffffffffffffffffffffffffff167f7fcf532c15f0a6db0bd6d0e038bea71d30d808c7d98cb3bf7268a95bf5081b65600d54604051610cd79190611c2a565b60405180910390a26110b9565b428411158015610cf45750824211155b15610ee957610d5f600c54610d51601460003373ffffffffffffffffffffffffffffffffffffffff1673ffffffffffffffffffffffffffffffffffffffff16815260200190815260200160002054846116cf90919063ffffffff16565b611bdb90919063ffffffff16565b60128190555086601460003373ffffffffffffffffffffffffffffffffffffffff1673ffffffffffffffffffffffffffffffffffffffff1681526020019081526020016000206000828254610db49190612111565b9250508190555086600c6000828254610dcd9190612111565b92505081905550610dfd601054610def6012548a611bc590919063ffffffff16565b611bc590919063ffffffff16565b600e8190555047600e541115610e195786600e81905550610e4b565b610e44601054610e36601254600654611bf190919063ffffffff16565b611bf190919063ffffffff16565b6006819055505b3373ffffffffffffffffffffffffffffffffffffffff166108fc600e549081150290604051600060405180830381858888f19350505050158015610e93573d6000803e3d6000fd5b503373ffffffffffffffffffffffffffffffffffffffff167f7fcf532c15f0a6db0bd6d0e038bea71d30d808c7d98cb3bf7268a95bf5081b65600e54604051610edc9190611c2a565b60405180910390a26110b8565b428310156110b757610f59600c54610f4b601460003373ffffffffffffffffffffffffffffffffffffffff1673ffffffffffffffffffffffffffffffffffffffff168152602001908152602001600020546006546116cf90919063ffffffff16565b611bdb90919063ffffffff16565b60138190555086601460003373ffffffffffffffffffffffffffffffffffffffff1673ffffffffffffffffffffffffffffffffffffffff1681526020019081526020016000206000828254610fae9190612111565b9250508190555086600c6000828254610fc79190612111565b92505081905550610fe360135488611bc590919063ffffffff16565b600f8190555047600f541115610fff5786600f8190555061101d565b611016601354600654611bf190919063ffffffff16565b6006819055505b3373ffffffffffffffffffffffffffffffffffffffff166108fc600f549081150290604051600060405180830381858888f19350505050158015611065573d6000803e3d6000fd5b503373ffffffffffffffffffffffffffffffffffffffff167f7fcf532c15f0a6db0bd6d0e038bea71d30d808c7d98cb3bf7268a95bf5081b65600f546040516110ae9190611c2a565b60405180910390a25b5b5b600195505050505050919050565b60125481565b600560009054906101000a900473ffffffffffffffffffffffffffffffffffffffff1681565b60606004805461110290611f82565b80601f016020809104026020016040519081016040528092919081815260200182805461112e90611f82565b801561117b5780601f106111505761010080835404028352916020019161117b565b820191906000526020600020905b81548152906001019060200180831161115e57829003601f168201915b5050505050905090565b6000806111906116e5565b90506000600160008373ffffffffffffffffffffffffffffffffffffffff1673ffffffffffffffffffffffffffffffffffffffff16815260200190815260200160002060008673ffffffffffffffffffffffffffffffffffffffff1673ffffffffffffffffffffffffffffffffffffffff16815260200190815260200160002054905083811015611256576040517f08c379a000000000000000000000000000000000000000000000000000000000815260040161124d906121b7565b60405180910390fd5b61126382868684036116ed565b60019250505092915050565b600080341180156112a957506112a6600560009054906101000a900473ffffffffffffffffffffffffffffffffffffffff16610934565b34105b6112e8576040517f08c379a00000000000000000000000000000000000000000000000000000000081526004016112df90612223565b60405180910390fd5b600073ffffffffffffffffffffffffffffffffffffffff163373ffffffffffffffffffffffffffffffffffffffff161415611358576040517f08c379a000000000000000000000000000000000000000000000000000000000815260040161134f9061228f565b60405180910390fd5b42611370600854600754611bc590919063ffffffff16565b116113b0576040517f08c379a00000000000000000000000000000000000000000000000000000000081526004016113a7906122fb565b60405180910390fd5b34601460003373ffffffffffffffffffffffffffffffffffffffff1673ffffffffffffffffffffffffffffffffffffffff16815260200190815260200160002060008282546113ff9190611fe3565b9250508190555034600c60008282546114189190611fe3565b925050819055503373ffffffffffffffffffffffffffffffffffffffff167f67d0e209d76ed24370106b1fd0fc1c82de411f7b72ba3d92736b75fe4add443a346040516114659190611c2a565b60405180910390a26001905090565b60115481565b6000806114856116e5565b9050611492818585611944565b600191505092915050565b6000600560009054906101000a900473ffffffffffffffffffffffffffffffffffffffff1673ffffffffffffffffffffffffffffffffffffffff163373ffffffffffffffffffffffffffffffffffffffff161461152f576040517f08c379a000000000000000000000000000000000000000000000000000000000815260040161152690612367565b60405180910390fd5b42611547600b54600754611bc590919063ffffffff16565b10611587576040517f08c379a000000000000000000000000000000000000000000000000000000000815260040161157e906123d3565b60405180910390fd5b6000600654116115cc576040517f08c379a00000000000000000000000000000000000000000000000000000000081526004016115c39061243f565b60405180910390fd5b3373ffffffffffffffffffffffffffffffffffffffff166108fc6006549081150290604051600060405180830381858888f19350505050158015611614573d6000803e3d6000fd5b5060006006819055506001905090565b60075481565b600a5481565b60135481565b600e5481565b6000600160008473ffffffffffffffffffffffffffffffffffffffff1673ffffffffffffffffffffffffffffffffffffffff16815260200190815260200160002060008373ffffffffffffffffffffffffffffffffffffffff1673ffffffffffffffffffffffffffffffffffffffff16815260200190815260200160002054905092915050565b60105481565b600c5481565b600081836116dd919061245f565b905092915050565b600033905090565b600073ffffffffffffffffffffffffffffffffffffffff168373ffffffffffffffffffffffffffffffffffffffff16141561175d576040517f08c379a00000000000000000000000000000000000000000000000000000000081526004016117549061252b565b60405180910390fd5b600073ffffffffffffffffffffffffffffffffffffffff168273ffffffffffffffffffffffffffffffffffffffff1614156117cd576040517f08c379a00000000000000000000000000000000000000000000000000000000081526004016117c4906125bd565b60405180910390fd5b80600160008573ffffffffffffffffffffffffffffffffffffffff1673ffffffffffffffffffffffffffffffffffffffff16815260200190815260200160002060008473ffffffffffffffffffffffffffffffffffffffff1673ffffffffffffffffffffffffffffffffffffffff168152602001908152602001600020819055508173ffffffffffffffffffffffffffffffffffffffff168373ffffffffffffffffffffffffffffffffffffffff167f8c5be1e5ebec7d5bd14f71427d1e84f3dd0314c0f7b2291e5b200ac8c7c3b925836040516118ab9190611c2a565b60405180910390a3505050565b60006118c4848461163c565b90507fffffffffffffffffffffffffffffffffffffffffffffffffffffffffffffffff811461193e5781811015611930576040517f08c379a000000000000000000000000000000000000000000000000000000000815260040161192790612629565b60405180910390fd5b61193d84848484036116ed565b5b50505050565b600073ffffffffffffffffffffffffffffffffffffffff168373ffffffffffffffffffffffffffffffffffffffff1614156119b4576040517f08c379a00000000000000000000000000000000000000000000000000000000081526004016119ab906126bb565b60405180910390fd5b600073ffffffffffffffffffffffffffffffffffffffff168273ffffffffffffffffffffffffffffffffffffffff161415611a24576040517f08c379a0000000000000000000000000000000000000000000000000000000008152600401611a1b9061274d565b60405180910390fd5b611a2f838383611c07565b60008060008573ffffffffffffffffffffffffffffffffffffffff1673ffffffffffffffffffffffffffffffffffffffff16815260200190815260200160002054905081811015611ab5576040517f08c379a0000000000000000000000000000000000000000000000000000000008152600401611aac906127df565b60405180910390fd5b8181036000808673ffffffffffffffffffffffffffffffffffffffff1673ffffffffffffffffffffffffffffffffffffffff16815260200190815260200160002081905550816000808573ffffffffffffffffffffffffffffffffffffffff1673ffffffffffffffffffffffffffffffffffffffff1681526020019081526020016000206000828254611b489190611fe3565b925050819055508273ffffffffffffffffffffffffffffffffffffffff168473ffffffffffffffffffffffffffffffffffffffff167fddf252ad1be2c89b69c2b068fc378daa952ba7f163c4a11628f55a4df523b3ef84604051611bac9190611c2a565b60405180910390a3611bbf848484611c0c565b50505050565b60008183611bd39190611fe3565b905092915050565b60008183611be9919061282e565b905092915050565b60008183611bff9190612111565b905092915050565b505050565b505050565b6000819050919050565b611c2481611c11565b82525050565b6000602082019050611c3f6000830184611c1b565b92915050565b600081519050919050565b600082825260208201905092915050565b60005b83811015611c7f578082015181840152602081019050611c64565b83811115611c8e576000848401525b50505050565b6000601f19601f8301169050919050565b6000611cb082611c45565b611cba8185611c50565b9350611cca818560208601611c61565b611cd381611c94565b840191505092915050565b60006020820190508181036000830152611cf88184611ca5565b905092915050565b600080fd5b600073ffffffffffffffffffffffffffffffffffffffff82169050919050565b6000611d3082611d05565b9050919050565b611d4081611d25565b8114611d4b57600080fd5b50565b600081359050611d5d81611d37565b92915050565b611d6c81611c11565b8114611d7757600080fd5b50565b600081359050611d8981611d63565b92915050565b60008060408385031215611da657611da5611d00565b5b6000611db485828601611d4e565b9250506020611dc585828601611d7a565b9150509250929050565b60008115159050919050565b611de481611dcf565b82525050565b6000602082019050611dff6000830184611ddb565b92915050565b600060208284031215611e1b57611e1a611d00565b5b6000611e2984828501611d4e565b91505092915050565b600080600060608486031215611e4b57611e4a611d00565b5b6000611e5986828701611d4e565b9350506020611e6a86828701611d4e565b9250506040611e7b86828701611d7a565b9150509250925092565b600060ff82169050919050565b611e9b81611e85565b82525050565b6000602082019050611eb66000830184611e92565b92915050565b600060208284031215611ed257611ed1611d00565b5b6000611ee084828501611d7a565b91505092915050565b611ef281611d25565b82525050565b6000602082019050611f0d6000830184611ee9565b92915050565b60008060408385031215611f2a57611f29611d00565b5b6000611f3885828601611d4e565b9250506020611f4985828601611d4e565b9150509250929050565b7f4e487b7100000000000000000000000000000000000000000000000000000000600052602260045260246000fd5b60006002820490506001821680611f9a57607f821691505b60208210811415611fae57611fad611f53565b5b50919050565b7f4e487b7100000000000000000000000000000000000000000000000000000000600052601160045260246000fd5b6000611fee82611c11565b9150611ff983611c11565b9250827fffffffffffffffffffffffffffffffffffffffffffffffffffffffffffffffff0382111561202e5761202d611fb4565b5b828201905092915050565b7f496e73756666696369656e742066756e64730000000000000000000000000000600082015250565b600061206f601283611c50565b915061207a82612039565b602082019050919050565b6000602082019050818103600083015261209e81612062565b9050919050565b7f4c6f636b656420506572696f6420737461747573000000000000000000000000600082015250565b60006120db601483611c50565b91506120e6826120a5565b602082019050919050565b6000602082019050818103600083015261210a816120ce565b9050919050565b600061211c82611c11565b915061212783611c11565b92508282101561213a57612139611fb4565b5b828203905092915050565b7f45524332303a2064656372656173656420616c6c6f77616e63652062656c6f7760008201527f207a65726f000000000000000000000000000000000000000000000000000000602082015250565b60006121a1602583611c50565b91506121ac82612145565b604082019050919050565b600060208201905081810360008301526121d081612194565b9050919050565b7f496e76616c6964204465706f736974652056616c756500000000000000000000600082015250565b600061220d601683611c50565b9150612218826121d7565b602082019050919050565b6000602082019050818103600083015261223c81612200565b9050919050565b7f496e76616c696420416464726573730000000000000000000000000000000000600082015250565b6000612279600f83611c50565b915061228482612243565b602082019050919050565b600060208201905081810360008301526122a88161226c565b9050919050565b7f4465706f73697420506572696f64204c6f636b65640000000000000000000000600082015250565b60006122e5601583611c50565b91506122f0826122af565b602082019050919050565b60006020820190508181036000830152612314816122d8565b9050919050565b7f496e76616c6964204f776e657200000000000000000000000000000000000000600082015250565b6000612351600d83611c50565b915061235c8261231b565b602082019050919050565b6000602082019050818103600083015261238081612344565b9050919050565b7f4c61737420506572696f6420737461747573292c000000000000000000000000600082015250565b60006123bd601483611c50565b91506123c882612387565b602082019050919050565b600060208201905081810360008301526123ec816123b0565b9050919050565b7f496e73756666696369656e7420546f6b65205265776172642e00000000000000600082015250565b6000612429601983611c50565b9150612434826123f3565b602082019050919050565b600060208201905081810360008301526124588161241c565b9050919050565b600061246a82611c11565b915061247583611c11565b9250817fffffffffffffffffffffffffffffffffffffffffffffffffffffffffffffffff04831182151516156124ae576124ad611fb4565b5b828202905092915050565b7f45524332303a20617070726f76652066726f6d20746865207a65726f2061646460008201527f7265737300000000000000000000000000000000000000000000000000000000602082015250565b6000612515602483611c50565b9150612520826124b9565b604082019050919050565b6000602082019050818103600083015261254481612508565b9050919050565b7f45524332303a20617070726f766520746f20746865207a65726f20616464726560008201527f7373000000000000000000000000000000000000000000000000000000000000602082015250565b60006125a7602283611c50565b91506125b28261254b565b604082019050919050565b600060208201905081810360008301526125d68161259a565b9050919050565b7f45524332303a20696e73756666696369656e7420616c6c6f77616e6365000000600082015250565b6000612613601d83611c50565b915061261e826125dd565b602082019050919050565b6000602082019050818103600083015261264281612606565b9050919050565b7f45524332303a207472616e736665722066726f6d20746865207a65726f20616460008201527f6472657373000000000000000000000000000000000000000000000000000000602082015250565b60006126a5602583611c50565b91506126b082612649565b604082019050919050565b600060208201905081810360008301526126d481612698565b9050919050565b7f45524332303a207472616e7366657220746f20746865207a65726f206164647260008201527f6573730000000000000000000000000000000000000000000000000000000000602082015250565b6000612737602383611c50565b9150612742826126db565b604082019050919050565b600060208201905081810360008301526127668161272a565b9050919050565b7f45524332303a207472616e7366657220616d6f756e742065786365656473206260008201527f616c616e63650000000000000000000000000000000000000000000000000000602082015250565b60006127c9602683611c50565b91506127d48261276d565b604082019050919050565b600060208201905081810360008301526127f8816127bc565b9050919050565b7f4e487b7100000000000000000000000000000000000000000000000000000000600052601260045260246000fd5b600061283982611c11565b915061284483611c11565b925082612854576128536127ff565b5b82820490509291505056fea2646970667358221220eec694fd7f207145306faaa889953ffaddedca1a6c5789605aa7575d170afa3c64736f6c634300080a0033",
  "immutableReferences": {},
  "source": "// SPDX-License-Identifier: MIT\r\npragma solidity  >=0.7.0 <0.9.0;\r\n\r\nimport \"@openzeppelin/contracts/token/ERC20/ERC20.sol\";\r\nimport \"@openzeppelin/contracts/token/ERC20/IERC20.sol\";\r\nimport \"@openzeppelin/contracts/utils/math/SafeMath.sol\";\r\n\r\ncontract BankToken is ERC20 {\r\n\r\n    using SafeMath for uint256;\r\n\r\n    // define Bank Owner\r\n    address public owner; // Bank Owner\r\n\r\n    // define TokenReward varaibales\r\n    uint256 public rToken; // TokenReward Pool\r\n    \r\n    // define different contract Periods\r\n    uint256 public t0Deploy; // contract deployement moment\r\n    uint256 public tDposit; // Deposit Period\r\n    uint256 public t2Dposit; // withdral Period after 2* tDposit pass\r\n    uint256 public t3Dposit; // withdral Period after 3* tDposit pass\r\n    uint256 public t4Dposit; // withdral Period after 4* tDposit pass\r\n\r\n    // define Balances Variables\r\n    uint256 public totalDeposit; // Toatl users deposits\r\n\r\n    //withdrawal Variables\r\n    uint256 public amount23;\r\n    uint256 public amount34;\r\n    uint256 public amount4;\r\n    uint256 public reward1Rem;\r\n    uint256 public rewardT23;\r\n    uint256 public rewardT34;\r\n    uint256 public rewardT4;\r\n\r\n    //Track User Balances\r\n    mapping(address =>uint256) public Balance;\r\n\r\n    //define Events\r\n    event Deposite(address indexed from , uint256 value);\r\n    event Withdrawal(address indexed to , uint256 value);\r\n\r\n    constructor( uint256 _tDposit )  payable ERC20(\"ATRAC\", \"MTK\") {\r\n       //_mint(msg.sender, 10000 * 10 ** decimals());\r\n        // initial assignments \r\n        owner=msg.sender; // assign the contract deployer to be Owner\r\n        require(msg.value >0 ,\"Invalid reward pool's value\");\r\n        payable(address(this)).transfer(msg.value);\r\n        rToken=msg.value; // TokenReward Pool Amount\r\n        t0Deploy=block.timestamp;\r\n        tDposit= _tDposit ;\r\n        t2Dposit= tDposit.mul(2);\r\n        t3Dposit= tDposit.mul(3);\r\n        t4Dposit= tDposit.mul(4);\r\n    }\r\n\r\n    modifier onlyOwner() {\r\n        require(msg.sender == owner , \"Invalid Owner\");\r\n        _;\r\n    }\r\n\r\n    function deposite() public payable returns (bool) {\r\n  \r\n        require(msg.value > 0 && msg.value < balanceOf(owner), \"Invalid Deposite Value\");\r\n        require(msg.sender != address(0), \"Invalid Address\");\r\n        //During the first period of T time the users can deposit tokens. After T has passed, no more deposits are allowed.\r\n        require(t0Deploy.add(tDposit) > block.timestamp,\"Deposit Period Locked\");\r\n        Balance[msg.sender] += msg.value;\r\n        totalDeposit += msg.value;\r\n        emit Deposite(msg.sender,msg.value);\r\n        //DepositTime[msg.sender] = block.timestamp;\r\n        return true;\r\n    }\r\n\r\n    function withdrawal(uint256 _amount) public payable returns (bool) {\r\n\r\n        uint256 t02=t0Deploy.add(t2Dposit);\r\n        uint256 t03=t0Deploy.add(t3Dposit);\r\n        uint256 t04=t0Deploy.add(t4Dposit);\r\n\r\n        //setup Reward Pool Calculation\r\n        uint256 r1Token = (rToken.mul (20)).div(100); // TokenReward R1 Pool\r\n        uint256 r2Token =(rToken.mul (30)).div(100); // TokenReward R2 Pool\r\n\r\n        require ( Balance[msg.sender] >= _amount , \"Insufficient funds\");\r\n\r\n        //After T2 has passed since contract deployment, the users can withdraw their tokens.\r\n        require(t02<block.timestamp , \"Locked Period status\");\r\n\r\n        //If a user withdraws tokens during the period t0+2T to t0+3T\r\n        if(t02<=block.timestamp && block.timestamp <= t03 ){\r\n\r\n            rewardT23= r1Token.mul(Balance[msg.sender]).div(totalDeposit);\r\n            Balance[msg.sender] -= _amount;\r\n            totalDeposit -= _amount;\r\n            amount23=_amount.add(rewardT23) ;\r\n            if(amount23> address(this).balance){\r\n                amount23=_amount;\r\n            } \r\n            else{\r\n                rToken=rToken.sub(rewardT23);\r\n            }\r\n            reward1Rem=r1Token.sub(rewardT23);\r\n            payable(msg.sender).transfer(amount23);\r\n            emit Withdrawal(msg.sender,amount23);\r\n            \r\n            \r\n        } else if (t03<=block.timestamp && block.timestamp <= t04)\r\n         //If a user withdraws tokens during the period t0+3T to t0+4T,\r\n         {\r\n            rewardT34= r2Token.mul(Balance[msg.sender]).div(totalDeposit);\r\n            Balance[msg.sender] -= _amount;\r\n            totalDeposit -= _amount;\r\n            \r\n            amount34=_amount.add(rewardT34).add(reward1Rem) ;\r\n            // if total amount due is greater than bank contract balance , avail withdrawal amount only without reward\r\n            if(amount34> address(this).balance){\r\n                amount34=_amount;\r\n            } else{\r\n                rToken=rToken.sub(rewardT34).sub(reward1Rem);\r\n            }\r\n            payable(msg.sender).transfer(amount34);\r\n            emit Withdrawal(msg.sender,amount34);\r\n        } else if (t04<block.timestamp) {\r\n\r\n            rewardT4= rToken.mul(Balance[msg.sender]).div(totalDeposit);\r\n            Balance[msg.sender] -= _amount;\r\n            totalDeposit -= _amount;\r\n            amount4=_amount.add(rewardT4) ;\r\n             // if total amount due is greater than bank contract balance , avail withdrawal amount only without reward\r\n            if(amount4> address(this).balance){\r\n                amount4=_amount;\r\n            }else{\r\n                rToken=rToken.sub(rewardT4);\r\n            }\r\n            payable(msg.sender).transfer(amount4);\r\n            emit Withdrawal(msg.sender,amount4);\r\n        }\r\n\r\n         return true;\r\n    }\r\n\r\n    function withdrawRemainRwrd() public payable onlyOwner returns (bool) {\r\n        require(t0Deploy.add(t4Dposit)<block.timestamp ,\"Last Period status),\");\r\n        require (rToken > 0 ,\"Insufficient Toke Reward.\");\r\n        payable(msg.sender).transfer(rToken);\r\n        rToken=0;\r\n        return true;\r\n\r\n    }\r\n\r\n    // function getBankBanlance () public view onlyOwner returns(uint256) {\r\n    //     return address(this).balance;\r\n    // } \r\n}\r\n",
  "sourcePath": "D:\\SolProjects\\hiring-task\\bank-tokens\\contracts\\BankToken.sol",
  "compiler": {
    "name": "solc",
    "version": "0.8.10+commit.fc410830.Emscripten.clang"
  },
  "schemaVersion": "3.4.3",
  "updatedAt": "2022-04-23T22:33:32.383Z",
  "networkType": "ethereum",
  "devdoc": {
    "kind": "dev",
    "methods": {
      "allowance(address,address)": {
        "details": "See {IERC20-allowance}."
      },
      "approve(address,uint256)": {
        "details": "See {IERC20-approve}. NOTE: If `amount` is the maximum `uint256`, the allowance is not updated on `transferFrom`. This is semantically equivalent to an infinite approval. Requirements: - `spender` cannot be the zero address."
      },
      "balanceOf(address)": {
        "details": "See {IERC20-balanceOf}."
      },
      "decimals()": {
        "details": "Returns the number of decimals used to get its user representation. For example, if `decimals` equals `2`, a balance of `505` tokens should be displayed to a user as `5.05` (`505 / 10 ** 2`). Tokens usually opt for a value of 18, imitating the relationship between Ether and Wei. This is the value {ERC20} uses, unless this function is overridden; NOTE: This information is only used for _display_ purposes: it in no way affects any of the arithmetic of the contract, including {IERC20-balanceOf} and {IERC20-transfer}."
      },
      "decreaseAllowance(address,uint256)": {
        "details": "Atomically decreases the allowance granted to `spender` by the caller. This is an alternative to {approve} that can be used as a mitigation for problems described in {IERC20-approve}. Emits an {Approval} event indicating the updated allowance. Requirements: - `spender` cannot be the zero address. - `spender` must have allowance for the caller of at least `subtractedValue`."
      },
      "increaseAllowance(address,uint256)": {
        "details": "Atomically increases the allowance granted to `spender` by the caller. This is an alternative to {approve} that can be used as a mitigation for problems described in {IERC20-approve}. Emits an {Approval} event indicating the updated allowance. Requirements: - `spender` cannot be the zero address."
      },
      "name()": {
        "details": "Returns the name of the token."
      },
      "symbol()": {
        "details": "Returns the symbol of the token, usually a shorter version of the name."
      },
      "totalSupply()": {
        "details": "See {IERC20-totalSupply}."
      },
      "transfer(address,uint256)": {
        "details": "See {IERC20-transfer}. Requirements: - `to` cannot be the zero address. - the caller must have a balance of at least `amount`."
      },
      "transferFrom(address,address,uint256)": {
        "details": "See {IERC20-transferFrom}. Emits an {Approval} event indicating the updated allowance. This is not required by the EIP. See the note at the beginning of {ERC20}. NOTE: Does not update the allowance if the current allowance is the maximum `uint256`. Requirements: - `from` and `to` cannot be the zero address. - `from` must have a balance of at least `amount`. - the caller must have allowance for ``from``'s tokens of at least `amount`."
      }
    },
    "version": 1
  },
  "userdoc": {
    "kind": "user",
    "methods": {},
    "version": 1
  }
}