{
  "contractName": "BankToken",
  "abi": [
    {
      "inputs": [
        {
          "internalType": "uint256",
          "name": "_tDposit",
          "type": "uint256"
        }
      ],
      "stateMutability": "payable",
      "type": "constructor",
      "payable": true
    },
    {
      "anonymous": false,
      "inputs": [
        {
          "indexed": true,
          "internalType": "address",
          "name": "owner",
          "type": "address"
        },
        {
          "indexed": true,
          "internalType": "address",
          "name": "spender",
          "type": "address"
        },
        {
          "indexed": false,
          "internalType": "uint256",
          "name": "value",
          "type": "uint256"
        }
      ],
      "name": "Approval",
      "type": "event"
    },
    {
      "anonymous": false,
      "inputs": [
        {
          "indexed": true,
          "internalType": "address",
          "name": "from",
          "type": "address"
        },
        {
          "indexed": false,
          "internalType": "uint256",
          "name": "value",
          "type": "uint256"
        }
      ],
      "name": "Deposite",
      "type": "event"
    },
    {
      "anonymous": false,
      "inputs": [
        {
          "indexed": true,
          "internalType": "address",
          "name": "from",
          "type": "address"
        },
        {
          "indexed": true,
          "internalType": "address",
          "name": "to",
          "type": "address"
        },
        {
          "indexed": false,
          "internalType": "uint256",
          "name": "value",
          "type": "uint256"
        }
      ],
      "name": "Transfer",
      "type": "event"
    },
    {
      "anonymous": false,
      "inputs": [
        {
          "indexed": true,
          "internalType": "address",
          "name": "to",
          "type": "address"
        },
        {
          "indexed": false,
          "internalType": "uint256",
          "name": "value",
          "type": "uint256"
        }
      ],
      "name": "Withdrawal",
      "type": "event"
    },
    {
      "inputs": [
        {
          "internalType": "address",
          "name": "",
          "type": "address"
        }
      ],
      "name": "Balance",
      "outputs": [
        {
          "internalType": "uint256",
          "name": "",
          "type": "uint256"
        }
      ],
      "stateMutability": "view",
      "type": "function",
      "constant": true
    },
    {
      "inputs": [
        {
          "internalType": "address",
          "name": "owner",
          "type": "address"
        },
        {
          "internalType": "address",
          "name": "spender",
          "type": "address"
        }
      ],
      "name": "allowance",
      "outputs": [
        {
          "internalType": "uint256",
          "name": "",
          "type": "uint256"
        }
      ],
      "stateMutability": "view",
      "type": "function",
      "constant": true
    },
    {
      "inputs": [],
      "name": "amount23",
      "outputs": [
        {
          "internalType": "uint256",
          "name": "",
          "type": "uint256"
        }
      ],
      "stateMutability": "view",
      "type": "function",
      "constant": true
    },
    {
      "inputs": [],
      "name": "amount34",
      "outputs": [
        {
          "internalType": "uint256",
          "name": "",
          "type": "uint256"
        }
      ],
      "stateMutability": "view",
      "type": "function",
      "constant": true
    },
    {
      "inputs": [],
      "name": "amount4",
      "outputs": [
        {
          "internalType": "uint256",
          "name": "",
          "type": "uint256"
        }
      ],
      "stateMutability": "view",
      "type": "function",
      "constant": true
    },
    {
      "inputs": [
        {
          "internalType": "address",
          "name": "spender",
          "type": "address"
        },
        {
          "internalType": "uint256",
          "name": "amount",
          "type": "uint256"
        }
      ],
      "name": "approve",
      "outputs": [
        {
          "internalType": "bool",
          "name": "",
          "type": "bool"
        }
      ],
      "stateMutability": "nonpayable",
      "type": "function"
    },
    {
      "inputs": [
        {
          "internalType": "address",
          "name": "account",
          "type": "address"
        }
      ],
      "name": "balanceOf",
      "outputs": [
        {
          "internalType": "uint256",
          "name": "",
          "type": "uint256"
        }
      ],
      "stateMutability": "view",
      "type": "function",
      "constant": true
    },
    {
      "inputs": [],
      "name": "decimals",
      "outputs": [
        {
          "internalType": "uint8",
          "name": "",
          "type": "uint8"
        }
      ],
      "stateMutability": "view",
      "type": "function",
      "constant": true
    },
    {
      "inputs": [
        {
          "internalType": "address",
          "name": "spender",
          "type": "address"
        },
        {
          "internalType": "uint256",
          "name": "subtractedValue",
          "type": "uint256"
        }
      ],
      "name": "decreaseAllowance",
      "outputs": [
        {
          "internalType": "bool",
          "name": "",
          "type": "bool"
        }
      ],
      "stateMutability": "nonpayable",
      "type": "function"
    },
    {
      "inputs": [
        {
          "internalType": "address",
          "name": "spender",
          "type": "address"
        },
        {
          "internalType": "uint256",
          "name": "addedValue",
          "type": "uint256"
        }
      ],
      "name": "increaseAllowance",
      "outputs": [
        {
          "internalType": "bool",
          "name": "",
          "type": "bool"
        }
      ],
      "stateMutability": "nonpayable",
      "type": "function"
    },
    {
      "inputs": [],
      "name": "name",
      "outputs": [
        {
          "internalType": "string",
          "name": "",
          "type": "string"
        }
      ],
      "stateMutability": "view",
      "type": "function",
      "constant": true
    },
    {
      "inputs": [],
      "name": "owner",
      "outputs": [
        {
          "internalType": "address",
          "name": "",
          "type": "address"
        }
      ],
      "stateMutability": "view",
      "type": "function",
      "constant": true
    },
    {
      "inputs": [],
      "name": "r1Token",
      "outputs": [
        {
          "internalType": "uint256",
          "name": "",
          "type": "uint256"
        }
      ],
      "stateMutability": "view",
      "type": "function",
      "constant": true
    },
    {
      "inputs": [],
      "name": "r2Token",
      "outputs": [
        {
          "internalType": "uint256",
          "name": "",
          "type": "uint256"
        }
      ],
      "stateMutability": "view",
      "type": "function",
      "constant": true
    },
    {
      "inputs": [],
      "name": "rToken",
      "outputs": [
        {
          "internalType": "uint256",
          "name": "",
          "type": "uint256"
        }
      ],
      "stateMutability": "view",
      "type": "function",
      "constant": true
    },
    {
      "inputs": [],
      "name": "reward1Rem",
      "outputs": [
        {
          "internalType": "uint256",
          "name": "",
          "type": "uint256"
        }
      ],
      "stateMutability": "view",
      "type": "function",
      "constant": true
    },
    {
      "inputs": [],
      "name": "rewardT23",
      "outputs": [
        {
          "internalType": "uint256",
          "name": "",
          "type": "uint256"
        }
      ],
      "stateMutability": "view",
      "type": "function",
      "constant": true
    },
    {
      "inputs": [],
      "name": "rewardT34",
      "outputs": [
        {
          "internalType": "uint256",
          "name": "",
          "type": "uint256"
        }
      ],
      "stateMutability": "view",
      "type": "function",
      "constant": true
    },
    {
      "inputs": [],
      "name": "rewardT4",
      "outputs": [
        {
          "internalType": "uint256",
          "name": "",
          "type": "uint256"
        }
      ],
      "stateMutability": "view",
      "type": "function",
      "constant": true
    },
    {
      "inputs": [],
      "name": "symbol",
      "outputs": [
        {
          "internalType": "string",
          "name": "",
          "type": "string"
        }
      ],
      "stateMutability": "view",
      "type": "function",
      "constant": true
    },
    {
      "inputs": [],
      "name": "t0Deploy",
      "outputs": [
        {
          "internalType": "uint256",
          "name": "",
          "type": "uint256"
        }
      ],
      "stateMutability": "view",
      "type": "function",
      "constant": true
    },
    {
      "inputs": [],
      "name": "t2Dposit",
      "outputs": [
        {
          "internalType": "uint256",
          "name": "",
          "type": "uint256"
        }
      ],
      "stateMutability": "view",
      "type": "function",
      "constant": true
    },
    {
      "inputs": [],
      "name": "t3Dposit",
      "outputs": [
        {
          "internalType": "uint256",
          "name": "",
          "type": "uint256"
        }
      ],
      "stateMutability": "view",
      "type": "function",
      "constant": true
    },
    {
      "inputs": [],
      "name": "t4Dposit",
      "outputs": [
        {
          "internalType": "uint256",
          "name": "",
          "type": "uint256"
        }
      ],
      "stateMutability": "view",
      "type": "function",
      "constant": true
    },
    {
      "inputs": [],
      "name": "tDposit",
      "outputs": [
        {
          "internalType": "uint256",
          "name": "",
          "type": "uint256"
        }
      ],
      "stateMutability": "view",
      "type": "function",
      "constant": true
    },
    {
      "inputs": [],
      "name": "totalDeposit",
      "outputs": [
        {
          "internalType": "uint256",
          "name": "",
          "type": "uint256"
        }
      ],
      "stateMutability": "view",
      "type": "function",
      "constant": true
    },
    {
      "inputs": [],
      "name": "totalSupply",
      "outputs": [
        {
          "internalType": "uint256",
          "name": "",
          "type": "uint256"
        }
      ],
      "stateMutability": "view",
      "type": "function",
      "constant": true
    },
    {
      "inputs": [
        {
          "internalType": "address",
          "name": "to",
          "type": "address"
        },
        {
          "internalType": "uint256",
          "name": "amount",
          "type": "uint256"
        }
      ],
      "name": "transfer",
      "outputs": [
        {
          "internalType": "bool",
          "name": "",
          "type": "bool"
        }
      ],
      "stateMutability": "nonpayable",
      "type": "function"
    },
    {
      "inputs": [
        {
          "internalType": "address",
          "name": "from",
          "type": "address"
        },
        {
          "internalType": "address",
          "name": "to",
          "type": "address"
        },
        {
          "internalType": "uint256",
          "name": "amount",
          "type": "uint256"
        }
      ],
      "name": "transferFrom",
      "outputs": [
        {
          "internalType": "bool",
          "name": "",
          "type": "bool"
        }
      ],
      "stateMutability": "nonpayable",
      "type": "function"
    },
    {
      "inputs": [],
      "name": "deposite",
      "outputs": [
        {
          "internalType": "bool",
          "name": "",
          "type": "bool"
        }
      ],
      "stateMutability": "payable",
      "type": "function",
      "payable": true
    },
    {
      "inputs": [
        {
          "internalType": "uint256",
          "name": "_amount",
          "type": "uint256"
        }
      ],
      "name": "withdrawal",
      "outputs": [
        {
          "internalType": "bool",
          "name": "",
          "type": "bool"
        }
      ],
      "stateMutability": "payable",
      "type": "function",
      "payable": true
    },
    {
      "inputs": [],
      "name": "withdrawRemainRwrd",
      "outputs": [
        {
          "internalType": "bool",
          "name": "",
          "type": "bool"
        }
      ],
      "stateMutability": "payable",
      "type": "function",
      "payable": true
    },
    {
      "inputs": [],
      "name": "getBankBanlance",
      "outputs": [
        {
          "internalType": "uint256",
          "name": "",
          "type": "uint256"
        }
      ],
      "stateMutability": "view",
      "type": "function",
      "constant": true
    }
  ],
  "bytecode": "0x60806040526040516200346938038062003469833981810160405281019062000029919062000558565b6040518060400160405280600581526020017f41545241430000000000000000000000000000000000000000000000000000008152506040518060400160405280600381526020017f4d544b00000000000000000000000000000000000000000000000000000000008152508160039080519060200190620000ad92919062000491565b508060049080519060200190620000c692919062000491565b5050506200010733620000de620002d560201b60201c565b600a620000ec919062000745565b612710620000fb919062000882565b620002de60201b60201c565b33600560006101000a81548173ffffffffffffffffffffffffffffffffffffffff021916908373ffffffffffffffffffffffffffffffffffffffff160217905550600034116200018e576040517f08c379a00000000000000000000000000000000000000000000000000000000081526004016200018590620005e3565b60405180910390fd5b3073ffffffffffffffffffffffffffffffffffffffff166108fc349081150290604051600060405180830381858888f19350505050158015620001d5573d6000803e3d6000fd5b50346006819055506200021460646200020060146006546200045760201b6200180a1790919060201c565b6200046f60201b620018201790919060201c565b6014819055506200025160646200023d601e6006546200045760201b6200180a1790919060201c565b6200046f60201b620018201790919060201c565b60158190555042600781905550806008819055506200028260026008546200045760201b6200180a1790919060201c565b600981905550620002a560036008546200045760201b6200180a1790919060201c565b600a81905550620002c860046008546200045760201b6200180a1790919060201c565b600b819055505062000a36565b60006012905090565b600073ffffffffffffffffffffffffffffffffffffffff168273ffffffffffffffffffffffffffffffffffffffff16141562000351576040517f08c379a0000000000000000000000000000000000000000000000000000000008152600401620003489062000605565b60405180910390fd5b62000365600083836200048760201b60201c565b806002600082825462000379919062000655565b92505081905550806000808473ffffffffffffffffffffffffffffffffffffffff1673ffffffffffffffffffffffffffffffffffffffff1681526020019081526020016000206000828254620003d0919062000655565b925050819055508173ffffffffffffffffffffffffffffffffffffffff16600073ffffffffffffffffffffffffffffffffffffffff167fddf252ad1be2c89b69c2b068fc378daa952ba7f163c4a11628f55a4df523b3ef8360405162000437919062000627565b60405180910390a362000453600083836200048c60201b60201c565b5050565b6000818362000467919062000882565b905092915050565b600081836200047f9190620006b2565b905092915050565b505050565b505050565b8280546200049f90620008fa565b90600052602060002090601f016020900481019282620004c357600085556200050f565b82601f10620004de57805160ff19168380011785556200050f565b828001600101855582156200050f579182015b828111156200050e578251825591602001919060010190620004f1565b5b5090506200051e919062000522565b5090565b5b808211156200053d57600081600090555060010162000523565b5090565b600081519050620005528162000a1c565b92915050565b6000602082840312156200056b57600080fd5b60006200057b8482850162000541565b91505092915050565b600062000593600d8362000644565b9150620005a082620009ca565b602082019050919050565b6000620005ba601f8362000644565b9150620005c782620009f3565b602082019050919050565b620005dd81620008e3565b82525050565b60006020820190508181036000830152620005fe8162000584565b9050919050565b600060208201905081810360008301526200062081620005ab565b9050919050565b60006020820190506200063e6000830184620005d2565b92915050565b600082825260208201905092915050565b60006200066282620008e3565b91506200066f83620008e3565b9250827fffffffffffffffffffffffffffffffffffffffffffffffffffffffffffffffff03821115620006a757620006a662000930565b5b828201905092915050565b6000620006bf82620008e3565b9150620006cc83620008e3565b925082620006df57620006de6200095f565b5b828204905092915050565b6000808291508390505b60018511156200073c5780860481111562000714576200071362000930565b5b6001851615620007245780820291505b80810290506200073485620009bd565b9450620006f4565b94509492505050565b60006200075282620008e3565b91506200075f83620008ed565b92506200078e7fffffffffffffffffffffffffffffffffffffffffffffffffffffffffffffffff848462000796565b905092915050565b600082620007a857600190506200087b565b81620007b857600090506200087b565b8160018114620007d15760028114620007dc5762000812565b60019150506200087b565b60ff841115620007f157620007f062000930565b5b8360020a9150848211156200080b576200080a62000930565b5b506200087b565b5060208310610133831016604e8410600b84101617156200084c5782820a90508381111562000846576200084562000930565b5b6200087b565b6200085b8484846001620006ea565b9250905081840481111562000875576200087462000930565b5b81810290505b9392505050565b60006200088f82620008e3565b91506200089c83620008e3565b9250817fffffffffffffffffffffffffffffffffffffffffffffffffffffffffffffffff0483118215151615620008d857620008d762000930565b5b828202905092915050565b6000819050919050565b600060ff82169050919050565b600060028204905060018216806200091357607f821691505b602082108114156200092a57620009296200098e565b5b50919050565b7f4e487b7100000000000000000000000000000000000000000000000000000000600052601160045260246000fd5b7f4e487b7100000000000000000000000000000000000000000000000000000000600052601260045260246000fd5b7f4e487b7100000000000000000000000000000000000000000000000000000000600052602260045260246000fd5b60008160011c9050919050565b7f496e76616c69642076616c756500000000000000000000000000000000000000600082015250565b7f45524332303a206d696e7420746f20746865207a65726f206164647265737300600082015250565b62000a2781620008e3565b811462000a3357600080fd5b50565b612a238062000a466000396000f3fe6080604052600436106101ee5760003560e01c806386f883e81161010d578063b6fbe82f116100a0578063d84540a81161006f578063d84540a814610710578063dcdb359a1461073b578063dd62ed3e14610766578063ef504985146107a3578063f6153ccd146107ce576101ee565b8063b6fbe82f14610664578063c2257d4c1461068f578063cd4fd3d5146106ba578063d4a2a2dd146106e5576101ee565b8063a50ec326116100dc578063a50ec326146105c0578063a8d94c83146105de578063a9059cbb14610609578063ac36c04314610646576101ee565b806386f883e8146105025780638da5cb5b1461052d57806395d89b4114610558578063a457c2d714610583576101ee565b8063395093511161018557806359118ff21161015457806359118ff21461043f57806370a082311461046a57806370a0ae83146104a7578063835fc6ca146104d2576101ee565b806339509351146103815780633aaaea58146103be57806340c65f72146103e9578063438120ba14610414576101ee565b8063239fcf0f116101c1578063239fcf0f146102b157806323b872dd146102ee57806327dabec31461032b578063313ce56714610356576101ee565b8063058ee0ea146101f357806306fdde031461021e578063095ea7b31461024957806318160ddd14610286575b600080fd5b3480156101ff57600080fd5b506102086107f9565b604051610215919061238c565b60405180910390f35b34801561022a57600080fd5b506102336107ff565b604051610240919061216a565b60405180910390f35b34801561025557600080fd5b50610270600480360381019061026b9190611e2a565b610891565b60405161027d919061214f565b60405180910390f35b34801561029257600080fd5b5061029b6108b4565b6040516102a8919061238c565b60405180910390f35b3480156102bd57600080fd5b506102d860048036038101906102d39190611d76565b6108be565b6040516102e5919061238c565b60405180910390f35b3480156102fa57600080fd5b5061031560048036038101906103109190611ddb565b6108d6565b604051610322919061214f565b60405180910390f35b34801561033757600080fd5b50610340610905565b60405161034d919061238c565b60405180910390f35b34801561036257600080fd5b5061036b61090b565b60405161037891906123a7565b60405180910390f35b34801561038d57600080fd5b506103a860048036038101906103a39190611e2a565b610914565b6040516103b5919061214f565b60405180910390f35b3480156103ca57600080fd5b506103d36109be565b6040516103e0919061238c565b60405180910390f35b3480156103f557600080fd5b506103fe6109c4565b60405161040b919061238c565b60405180910390f35b34801561042057600080fd5b506104296109ca565b604051610436919061238c565b60405180910390f35b34801561044b57600080fd5b506104546109d0565b604051610461919061238c565b60405180910390f35b34801561047657600080fd5b50610491600480360381019061048c9190611d76565b6109d6565b60405161049e919061238c565b60405180910390f35b3480156104b357600080fd5b506104bc610a1e565b6040516104c9919061238c565b60405180910390f35b6104ec60048036038101906104e79190611e66565b610a24565b6040516104f9919061214f565b60405180910390f35b34801561050e57600080fd5b50610517611164565b604051610524919061238c565b60405180910390f35b34801561053957600080fd5b5061054261116a565b60405161054f9190612134565b60405180910390f35b34801561056457600080fd5b5061056d611190565b60405161057a919061216a565b60405180910390f35b34801561058f57600080fd5b506105aa60048036038101906105a59190611e2a565b611222565b6040516105b7919061214f565b60405180910390f35b6105c861130c565b6040516105d5919061214f565b60405180910390f35b3480156105ea57600080fd5b506105f3611511565b604051610600919061238c565b60405180910390f35b34801561061557600080fd5b50610630600480360381019061062b9190611e2a565b611517565b60405161063d919061214f565b60405180910390f35b61064e61153a565b60405161065b919061214f565b60405180910390f35b34801561067057600080fd5b506106796116c1565b604051610686919061238c565b60405180910390f35b34801561069b57600080fd5b506106a46116c7565b6040516106b1919061238c565b60405180910390f35b3480156106c657600080fd5b506106cf61175f565b6040516106dc919061238c565b60405180910390f35b3480156106f157600080fd5b506106fa611765565b604051610707919061238c565b60405180910390f35b34801561071c57600080fd5b5061072561176b565b604051610732919061238c565b60405180910390f35b34801561074757600080fd5b50610750611771565b60405161075d919061238c565b60405180910390f35b34801561077257600080fd5b5061078d60048036038101906107889190611d9f565b611777565b60405161079a919061238c565b60405180910390f35b3480156107af57600080fd5b506107b86117fe565b6040516107c5919061238c565b60405180910390f35b3480156107da57600080fd5b506107e3611804565b6040516107f0919061238c565b60405180910390f35b600b5481565b60606003805461080e9061257b565b80601f016020809104026020016040519081016040528092919081815260200182805461083a9061257b565b80156108875780601f1061085c57610100808354040283529160200191610887565b820191906000526020600020905b81548152906001019060200180831161086a57829003601f168201915b5050505050905090565b60008061089c611836565b90506108a981858561183e565b600191505092915050565b6000600254905090565b60166020528060005260406000206000915090505481565b6000806108e1611836565b90506108ee858285611a09565b6108f9858585611a95565b60019150509392505050565b600d5481565b60006012905090565b60008061091f611836565b90506109b3818585600160008673ffffffffffffffffffffffffffffffffffffffff1673ffffffffffffffffffffffffffffffffffffffff16815260200190815260200160002060008973ffffffffffffffffffffffffffffffffffffffff1673ffffffffffffffffffffffffffffffffffffffff168152602001908152602001600020546109ae91906123de565b61183e565b600191505092915050565b60085481565b60065481565b60095481565b600f5481565b60008060008373ffffffffffffffffffffffffffffffffffffffff1673ffffffffffffffffffffffffffffffffffffffff168152602001908152602001600020549050919050565b60145481565b600080610a3e600954600754611d1690919063ffffffff16565b90506000610a59600a54600754611d1690919063ffffffff16565b90506000610a74600b54600754611d1690919063ffffffff16565b9050600560009054906101000a900473ffffffffffffffffffffffffffffffffffffffff1673ffffffffffffffffffffffffffffffffffffffff163373ffffffffffffffffffffffffffffffffffffffff161415610b07576040517f08c379a0000000000000000000000000000000000000000000000000000000008152600401610afe9061226c565b60405180910390fd5b84601660003373ffffffffffffffffffffffffffffffffffffffff1673ffffffffffffffffffffffffffffffffffffffff1681526020019081526020016000205414610b88576040517f08c379a0000000000000000000000000000000000000000000000000000000008152600401610b7f9061224c565b60405180910390fd5b428310610bca576040517f08c379a0000000000000000000000000000000000000000000000000000000008152600401610bc19061232c565b60405180910390fd5b428311158015610bda5750814211155b15610daf57610c47600c54610c39601660003373ffffffffffffffffffffffffffffffffffffffff1673ffffffffffffffffffffffffffffffffffffffff1681526020019081526020016000205460145461180a90919063ffffffff16565b61182090919063ffffffff16565b60118190555084601660003373ffffffffffffffffffffffffffffffffffffffff1673ffffffffffffffffffffffffffffffffffffffff1681526020019081526020016000206000828254610c9c91906124bf565b9250508190555084600c6000828254610cb591906124bf565b92505081905550610cd160115486611d1690919063ffffffff16565b600d81905550610cee601154600654611d2c90919063ffffffff16565b600681905550610d0b601154601454611d2c90919063ffffffff16565b6010819055503373ffffffffffffffffffffffffffffffffffffffff166108fc600d549081150290604051600060405180830381858888f19350505050158015610d59573d6000803e3d6000fd5b503373ffffffffffffffffffffffffffffffffffffffff167f7fcf532c15f0a6db0bd6d0e038bea71d30d808c7d98cb3bf7268a95bf5081b65600d54604051610da2919061238c565b60405180910390a2611158565b428211158015610dbf5750804211155b15610f9f57610e2c600c54610e1e601660003373ffffffffffffffffffffffffffffffffffffffff1673ffffffffffffffffffffffffffffffffffffffff1681526020019081526020016000205460155461180a90919063ffffffff16565b61182090919063ffffffff16565b60128190555084601660003373ffffffffffffffffffffffffffffffffffffffff1673ffffffffffffffffffffffffffffffffffffffff1681526020019081526020016000206000828254610e8191906124bf565b9250508190555084600c6000828254610e9a91906124bf565b92505081905550610eca601054610ebc60125488611d1690919063ffffffff16565b611d1690919063ffffffff16565b600e81905550610efb601054610eed601254600654611d2c90919063ffffffff16565b611d2c90919063ffffffff16565b6006819055503373ffffffffffffffffffffffffffffffffffffffff166108fc600e549081150290604051600060405180830381858888f19350505050158015610f49573d6000803e3d6000fd5b503373ffffffffffffffffffffffffffffffffffffffff167f7fcf532c15f0a6db0bd6d0e038bea71d30d808c7d98cb3bf7268a95bf5081b65600e54604051610f92919061238c565b60405180910390a2611157565b428110156111565761100f600c54611001601660003373ffffffffffffffffffffffffffffffffffffffff1673ffffffffffffffffffffffffffffffffffffffff1681526020019081526020016000205460065461180a90919063ffffffff16565b61182090919063ffffffff16565b60138190555084601660003373ffffffffffffffffffffffffffffffffffffffff1673ffffffffffffffffffffffffffffffffffffffff168152602001908152602001600020600082825461106491906124bf565b9250508190555084600c600082825461107d91906124bf565b9250508190555061109960135486611d1690919063ffffffff16565b600f819055506110b6601354600654611d2c90919063ffffffff16565b6006819055503373ffffffffffffffffffffffffffffffffffffffff166108fc600f549081150290604051600060405180830381858888f19350505050158015611104573d6000803e3d6000fd5b503373ffffffffffffffffffffffffffffffffffffffff167f7fcf532c15f0a6db0bd6d0e038bea71d30d808c7d98cb3bf7268a95bf5081b65600f5460405161114d919061238c565b60405180910390a25b5b5b60019350505050919050565b60125481565b600560009054906101000a900473ffffffffffffffffffffffffffffffffffffffff1681565b60606004805461119f9061257b565b80601f01602080910402602001604051908101604052809291908181526020018280546111cb9061257b565b80156112185780601f106111ed57610100808354040283529160200191611218565b820191906000526020600020905b8154815290600101906020018083116111fb57829003601f168201915b5050505050905090565b60008061122d611836565b90506000600160008373ffffffffffffffffffffffffffffffffffffffff1673ffffffffffffffffffffffffffffffffffffffff16815260200190815260200160002060008673ffffffffffffffffffffffffffffffffffffffff1673ffffffffffffffffffffffffffffffffffffffff168152602001908152602001600020549050838110156112f3576040517f08c379a00000000000000000000000000000000000000000000000000000000081526004016112ea9061236c565b60405180910390fd5b611300828686840361183e565b60019250505092915050565b600080341180156113465750611343600560009054906101000a900473ffffffffffffffffffffffffffffffffffffffff166109d6565b34105b611385576040517f08c379a000000000000000000000000000000000000000000000000000000000815260040161137c9061230c565b60405180910390fd5b600073ffffffffffffffffffffffffffffffffffffffff163373ffffffffffffffffffffffffffffffffffffffff1614156113f5576040517f08c379a00000000000000000000000000000000000000000000000000000000081526004016113ec906122cc565b60405180910390fd5b4261140d600854600754611d1690919063ffffffff16565b1161144d576040517f08c379a0000000000000000000000000000000000000000000000000000000008152600401611444906121cc565b60405180910390fd5b34601660003373ffffffffffffffffffffffffffffffffffffffff1673ffffffffffffffffffffffffffffffffffffffff168152602001908152602001600020600082825461149c91906123de565b9250508190555034600c60008282546114b591906123de565b925050819055503373ffffffffffffffffffffffffffffffffffffffff167f67d0e209d76ed24370106b1fd0fc1c82de411f7b72ba3d92736b75fe4add443a34604051611502919061238c565b60405180910390a26001905090565b60115481565b600080611522611836565b905061152f818585611a95565b600191505092915050565b6000600560009054906101000a900473ffffffffffffffffffffffffffffffffffffffff1673ffffffffffffffffffffffffffffffffffffffff163373ffffffffffffffffffffffffffffffffffffffff16146115cc576040517f08c379a00000000000000000000000000000000000000000000000000000000081526004016115c3906121ac565b60405180910390fd5b426115e4600b54600754611d1690919063ffffffff16565b10611624576040517f08c379a000000000000000000000000000000000000000000000000000000000815260040161161b9061234c565b60405180910390fd5b600060065411611669576040517f08c379a00000000000000000000000000000000000000000000000000000000081526004016116609061228c565b60405180910390fd5b3373ffffffffffffffffffffffffffffffffffffffff166108fc6006549081150290604051600060405180830381858888f193505050501580156116b1573d6000803e3d6000fd5b5060006006819055506001905090565b60075481565b6000600560009054906101000a900473ffffffffffffffffffffffffffffffffffffffff1673ffffffffffffffffffffffffffffffffffffffff163373ffffffffffffffffffffffffffffffffffffffff1614611759576040517f08c379a0000000000000000000000000000000000000000000000000000000008152600401611750906121ac565b60405180910390fd5b47905090565b600a5481565b60135481565b600e5481565b60155481565b6000600160008473ffffffffffffffffffffffffffffffffffffffff1673ffffffffffffffffffffffffffffffffffffffff16815260200190815260200160002060008373ffffffffffffffffffffffffffffffffffffffff1673ffffffffffffffffffffffffffffffffffffffff16815260200190815260200160002054905092915050565b60105481565b600c5481565b600081836118189190612465565b905092915050565b6000818361182e9190612434565b905092915050565b600033905090565b600073ffffffffffffffffffffffffffffffffffffffff168373ffffffffffffffffffffffffffffffffffffffff1614156118ae576040517f08c379a00000000000000000000000000000000000000000000000000000000081526004016118a5906122ec565b60405180910390fd5b600073ffffffffffffffffffffffffffffffffffffffff168273ffffffffffffffffffffffffffffffffffffffff16141561191e576040517f08c379a0000000000000000000000000000000000000000000000000000000008152600401611915906121ec565b60405180910390fd5b80600160008573ffffffffffffffffffffffffffffffffffffffff1673ffffffffffffffffffffffffffffffffffffffff16815260200190815260200160002060008473ffffffffffffffffffffffffffffffffffffffff1673ffffffffffffffffffffffffffffffffffffffff168152602001908152602001600020819055508173ffffffffffffffffffffffffffffffffffffffff168373ffffffffffffffffffffffffffffffffffffffff167f8c5be1e5ebec7d5bd14f71427d1e84f3dd0314c0f7b2291e5b200ac8c7c3b925836040516119fc919061238c565b60405180910390a3505050565b6000611a158484611777565b90507fffffffffffffffffffffffffffffffffffffffffffffffffffffffffffffffff8114611a8f5781811015611a81576040517f08c379a0000000000000000000000000000000000000000000000000000000008152600401611a789061220c565b60405180910390fd5b611a8e848484840361183e565b5b50505050565b600073ffffffffffffffffffffffffffffffffffffffff168373ffffffffffffffffffffffffffffffffffffffff161415611b05576040517f08c379a0000000000000000000000000000000000000000000000000000000008152600401611afc906122ac565b60405180910390fd5b600073ffffffffffffffffffffffffffffffffffffffff168273ffffffffffffffffffffffffffffffffffffffff161415611b75576040517f08c379a0000000000000000000000000000000000000000000000000000000008152600401611b6c9061218c565b60405180910390fd5b611b80838383611d42565b60008060008573ffffffffffffffffffffffffffffffffffffffff1673ffffffffffffffffffffffffffffffffffffffff16815260200190815260200160002054905081811015611c06576040517f08c379a0000000000000000000000000000000000000000000000000000000008152600401611bfd9061222c565b60405180910390fd5b8181036000808673ffffffffffffffffffffffffffffffffffffffff1673ffffffffffffffffffffffffffffffffffffffff16815260200190815260200160002081905550816000808573ffffffffffffffffffffffffffffffffffffffff1673ffffffffffffffffffffffffffffffffffffffff1681526020019081526020016000206000828254611c9991906123de565b925050819055508273ffffffffffffffffffffffffffffffffffffffff168473ffffffffffffffffffffffffffffffffffffffff167fddf252ad1be2c89b69c2b068fc378daa952ba7f163c4a11628f55a4df523b3ef84604051611cfd919061238c565b60405180910390a3611d10848484611d47565b50505050565b60008183611d2491906123de565b905092915050565b60008183611d3a91906124bf565b905092915050565b505050565b505050565b600081359050611d5b816129bf565b92915050565b600081359050611d70816129d6565b92915050565b600060208284031215611d8857600080fd5b6000611d9684828501611d4c565b91505092915050565b60008060408385031215611db257600080fd5b6000611dc085828601611d4c565b9250506020611dd185828601611d4c565b9150509250929050565b600080600060608486031215611df057600080fd5b6000611dfe86828701611d4c565b9350506020611e0f86828701611d4c565b9250506040611e2086828701611d61565b9150509250925092565b60008060408385031215611e3d57600080fd5b6000611e4b85828601611d4c565b9250506020611e5c85828601611d61565b9150509250929050565b600060208284031215611e7857600080fd5b6000611e8684828501611d61565b91505092915050565b611e98816124f3565b82525050565b611ea781612505565b82525050565b6000611eb8826123c2565b611ec281856123cd565b9350611ed2818560208601612548565b611edb8161263a565b840191505092915050565b6000611ef36023836123cd565b9150611efe8261264b565b604082019050919050565b6000611f16600d836123cd565b9150611f218261269a565b602082019050919050565b6000611f396015836123cd565b9150611f44826126c3565b602082019050919050565b6000611f5c6022836123cd565b9150611f67826126ec565b604082019050919050565b6000611f7f601d836123cd565b9150611f8a8261273b565b602082019050919050565b6000611fa26026836123cd565b9150611fad82612764565b604082019050919050565b6000611fc56012836123cd565b9150611fd0826127b3565b602082019050919050565b6000611fe86017836123cd565b9150611ff3826127dc565b602082019050919050565b600061200b6019836123cd565b915061201682612805565b602082019050919050565b600061202e6025836123cd565b91506120398261282e565b604082019050919050565b6000612051600f836123cd565b915061205c8261287d565b602082019050919050565b60006120746024836123cd565b915061207f826128a6565b604082019050919050565b60006120976016836123cd565b91506120a2826128f5565b602082019050919050565b60006120ba6014836123cd565b91506120c58261291e565b602082019050919050565b60006120dd6014836123cd565b91506120e882612947565b602082019050919050565b60006121006025836123cd565b915061210b82612970565b604082019050919050565b61211f81612531565b82525050565b61212e8161253b565b82525050565b60006020820190506121496000830184611e8f565b92915050565b60006020820190506121646000830184611e9e565b92915050565b600060208201905081810360008301526121848184611ead565b905092915050565b600060208201905081810360008301526121a581611ee6565b9050919050565b600060208201905081810360008301526121c581611f09565b9050919050565b600060208201905081810360008301526121e581611f2c565b9050919050565b6000602082019050818103600083015261220581611f4f565b9050919050565b6000602082019050818103600083015261222581611f72565b9050919050565b6000602082019050818103600083015261224581611f95565b9050919050565b6000602082019050818103600083015261226581611fb8565b9050919050565b6000602082019050818103600083015261228581611fdb565b9050919050565b600060208201905081810360008301526122a581611ffe565b9050919050565b600060208201905081810360008301526122c581612021565b9050919050565b600060208201905081810360008301526122e581612044565b9050919050565b6000602082019050818103600083015261230581612067565b9050919050565b600060208201905081810360008301526123258161208a565b9050919050565b60006020820190508181036000830152612345816120ad565b9050919050565b60006020820190508181036000830152612365816120d0565b9050919050565b60006020820190508181036000830152612385816120f3565b9050919050565b60006020820190506123a16000830184612116565b92915050565b60006020820190506123bc6000830184612125565b92915050565b600081519050919050565b600082825260208201905092915050565b60006123e982612531565b91506123f483612531565b9250827fffffffffffffffffffffffffffffffffffffffffffffffffffffffffffffffff03821115612429576124286125ad565b5b828201905092915050565b600061243f82612531565b915061244a83612531565b92508261245a576124596125dc565b5b828204905092915050565b600061247082612531565b915061247b83612531565b9250817fffffffffffffffffffffffffffffffffffffffffffffffffffffffffffffffff04831182151516156124b4576124b36125ad565b5b828202905092915050565b60006124ca82612531565b91506124d583612531565b9250828210156124e8576124e76125ad565b5b828203905092915050565b60006124fe82612511565b9050919050565b60008115159050919050565b600073ffffffffffffffffffffffffffffffffffffffff82169050919050565b6000819050919050565b600060ff82169050919050565b60005b8381101561256657808201518184015260208101905061254b565b83811115612575576000848401525b50505050565b6000600282049050600182168061259357607f821691505b602082108114156125a7576125a661260b565b5b50919050565b7f4e487b7100000000000000000000000000000000000000000000000000000000600052601160045260246000fd5b7f4e487b7100000000000000000000000000000000000000000000000000000000600052601260045260246000fd5b7f4e487b7100000000000000000000000000000000000000000000000000000000600052602260045260246000fd5b6000601f19601f8301169050919050565b7f45524332303a207472616e7366657220746f20746865207a65726f206164647260008201527f6573730000000000000000000000000000000000000000000000000000000000602082015250565b7f496e76616c6964204f776e657200000000000000000000000000000000000000600082015250565b7f4465706f73697420506572696f64204c6f636b65640000000000000000000000600082015250565b7f45524332303a20617070726f766520746f20746865207a65726f20616464726560008201527f7373000000000000000000000000000000000000000000000000000000000000602082015250565b7f45524332303a20696e73756666696369656e7420616c6c6f77616e6365000000600082015250565b7f45524332303a207472616e7366657220616d6f756e742065786365656473206260008201527f616c616e63650000000000000000000000000000000000000000000000000000602082015250565b7f496e73756666696369656e742066756e64730000000000000000000000000000600082015250565b7f4f776e65722063616e206e6f7420776974686472617773000000000000000000600082015250565b7f496e73756666696369656e7420546f6b65205265776172642e00000000000000600082015250565b7f45524332303a207472616e736665722066726f6d20746865207a65726f20616460008201527f6472657373000000000000000000000000000000000000000000000000000000602082015250565b7f496e76616c696420416464726573730000000000000000000000000000000000600082015250565b7f45524332303a20617070726f76652066726f6d20746865207a65726f2061646460008201527f7265737300000000000000000000000000000000000000000000000000000000602082015250565b7f496e76616c6964204465706f736974652056616c756500000000000000000000600082015250565b7f4c6f636b656420506572696f6420737461747573000000000000000000000000600082015250565b7f4c61737420506572696f6420737461747573292c000000000000000000000000600082015250565b7f45524332303a2064656372656173656420616c6c6f77616e63652062656c6f7760008201527f207a65726f000000000000000000000000000000000000000000000000000000602082015250565b6129c8816124f3565b81146129d357600080fd5b50565b6129df81612531565b81146129ea57600080fd5b5056fea264697066735822122098dabec31efb1f87349a1c3bba046c85dab32cb3af1696dddbc939cc678b0bb264736f6c63430008010033",
  "immutableReferences": {},
  "source": "// SPDX-License-Identifier: MIT\r\npragma solidity  >=0.7.0 <0.9.0;\r\n\r\nimport \"@openzeppelin/contracts/token/ERC20/ERC20.sol\";\r\nimport \"@openzeppelin/contracts/token/ERC20/IERC20.sol\";\r\nimport \"@openzeppelin/contracts/utils/math/SafeMath.sol\";\r\n\r\ncontract BankToken is ERC20 {\r\n\r\n    using SafeMath for uint256;\r\n\r\n    // define Bank Owner\r\n    address public owner; // Bank Owner\r\n\r\n    // define TokenReward varaibales\r\n    uint256 public rToken; // TokenReward Pool\r\n    \r\n    // define different contract Periods\r\n    uint256 public t0Deploy;   // contract deployement moment\r\n    uint256 public tDposit;   // Deposit Period\r\n    uint256 public t2Dposit; // withdral Period after 2* tDposit pass\r\n    uint256 public t3Dposit; // withdral Period after 3* tDposit pass\r\n    uint256 public t4Dposit; // withdral Period after 4* tDposit pass\r\n\r\n    // define Balances Variables\r\n    uint256 public totalDeposit; // Toatl users deposits\r\n\r\n    //withdrawal Variables\r\n    uint256 public amount23;   // withdraw amount+ rewardT23\r\n    uint256 public amount34;  // withdraw amount+ rewardT34\r\n    uint256 public amount4;  // withdraw amount+rewardT4\r\n    uint256 public reward1Rem; // Reward Remaining\r\n    uint256 public rewardT23; // Reward of period t0+2T to t0+3T\r\n    uint256 public rewardT34;  // Reward of period t0+3T to t0+4T\r\n    uint256 public rewardT4;   // Reward of period after 4T\r\n\r\n    //Reward Pool \r\n    uint256 public r1Token; // TokenReward R1 Pool\r\n    uint256 public r2Token; // TokenReward R2 Pool\r\n    \r\n\r\n    //Track User Balances\r\n    mapping(address =>uint256) public Balance;\r\n\r\n    //define Events\r\n    event Deposite(address indexed from , uint256 value); // Deposit Event\r\n    event Withdrawal(address indexed to , uint256 value); // Withdraw Event\r\n\r\n    constructor( uint256 _tDposit )  payable ERC20(\"ATRAC\", \"MTK\") {\r\n      _mint(msg.sender, 10000 * 10 ** decimals());\r\n        // initial assignments \r\n        owner=msg.sender; // assign the contract deployer to be Owner\r\n        require(msg.value >0 ,\"Invalid value\");\r\n        payable(address(this)).transfer(msg.value);\r\n        rToken=msg.value; // TokenReward Pool Amount\r\n        //setup Reward Pool Calculation\r\n        r1Token = (rToken.mul (20)).div(100); \r\n        r2Token =(rToken.mul (30)).div(100); \r\n        //asssign contract Time\r\n        t0Deploy=block.timestamp;\r\n        tDposit= _tDposit ;\r\n        t2Dposit= tDposit.mul(2);\r\n        t3Dposit= tDposit.mul(3);\r\n        t4Dposit= tDposit.mul(4);\r\n    }\r\n\r\n    // Only Owner Modifier\r\n    modifier onlyOwner() {\r\n        require(msg.sender == owner , \"Invalid Owner\");\r\n        _;\r\n    }\r\n    // Deposit Function\r\n    function deposite() public payable returns (bool) {\r\n  \r\n        require(msg.value > 0 && msg.value < balanceOf(owner), \"Invalid Deposite Value\");\r\n        require(msg.sender != address(0), \"Invalid Address\");\r\n        //During the first period of T time the users can deposit tokens. After T has passed, no more deposits are allowed.\r\n        require(t0Deploy.add(tDposit) > block.timestamp,\"Deposit Period Locked\");\r\n        Balance[msg.sender] += msg.value;\r\n        totalDeposit += msg.value;\r\n        emit Deposite(msg.sender,msg.value);\r\n        return true;\r\n    }\r\n    // withdrawal Function\r\n    function withdrawal(uint256 _amount) public payable returns (bool) {\r\n\r\n        uint256 t02=t0Deploy.add(t2Dposit); // Period 2\r\n        uint256 t03=t0Deploy.add(t3Dposit); // Period 3\r\n        uint256 t04=t0Deploy.add(t4Dposit); // Period 4\r\n\r\n        // Owner can not withdraw tokens of Users\r\n        require(msg.sender != owner ,\"Owner can not withdraws\");\r\n        // user should withdraws all of his tokens.\r\n        require ( Balance[msg.sender] == _amount , \"Insufficient funds\");\r\n        //After T2 has passed since contract deployment, the users can withdraw their tokens.\r\n        require(t02<block.timestamp , \"Locked Period status\");\r\n\r\n        //If a user withdraws tokens during the period t0+2T to t0+3T\r\n        if(t02<=block.timestamp && block.timestamp <= t03 ){\r\n\r\n            rewardT23= r1Token.mul(Balance[msg.sender]).div(totalDeposit);\r\n            Balance[msg.sender] -= _amount;\r\n            totalDeposit -= _amount;\r\n            amount23=_amount.add(rewardT23) ;\r\n            rToken=rToken.sub(rewardT23);\r\n            reward1Rem=r1Token.sub(rewardT23);\r\n            payable(msg.sender).transfer(amount23);\r\n            emit Withdrawal(msg.sender,amount23);\r\n            \r\n            \r\n        } else if (t03<=block.timestamp && block.timestamp <= t04)\r\n         //If a user withdraws tokens during the period t0+3T to t0+4T,\r\n         {\r\n            rewardT34= r2Token.mul(Balance[msg.sender]).div(totalDeposit);\r\n            Balance[msg.sender] -= _amount;\r\n            totalDeposit -= _amount;\r\n            \r\n            amount34=_amount.add(rewardT34).add(reward1Rem) ;\r\n            rToken=rToken.sub(rewardT34).sub(reward1Rem);\r\n            \r\n            payable(msg.sender).transfer(amount34);\r\n            emit Withdrawal(msg.sender,amount34);\r\n        } else if (t04<block.timestamp) {\r\n\r\n            rewardT4= rToken.mul(Balance[msg.sender]).div(totalDeposit);\r\n            Balance[msg.sender] -= _amount;\r\n            totalDeposit -= _amount;\r\n            amount4=_amount.add(rewardT4) ;\r\n            rToken=rToken.sub(rewardT4);\r\n            \r\n            payable(msg.sender).transfer(amount4);\r\n            emit Withdrawal(msg.sender,amount4);\r\n        }\r\n\r\n         return true;\r\n    }\r\n\r\n    function withdrawRemainRwrd() public payable onlyOwner returns (bool) {\r\n        require(t0Deploy.add(t4Dposit)<block.timestamp ,\"Last Period status),\");\r\n        require (rToken > 0 ,\"Insufficient Toke Reward.\");\r\n        payable(msg.sender).transfer(rToken);\r\n        rToken=0;\r\n        return true;\r\n\r\n    }\r\n\r\n    function getBankBanlance () public view onlyOwner returns(uint256) {\r\n        return address(this).balance;\r\n    } \r\n}\r\n",
  "sourcePath": "D:\\SolProjects\\hiring-task\\bank-tokens\\contracts\\BankToken.sol",
  "compiler": {
    "name": "solc",
    "version": "0.8.1+commit.df193b15.Emscripten.clang"
  },
  "schemaVersion": "3.4.3",
  "updatedAt": "2022-04-26T21:17:31.445Z",
  "networkType": "ethereum",
  "devdoc": {
    "kind": "dev",
    "methods": {
      "allowance(address,address)": {
        "details": "See {IERC20-allowance}."
      },
      "approve(address,uint256)": {
        "details": "See {IERC20-approve}. NOTE: If `amount` is the maximum `uint256`, the allowance is not updated on `transferFrom`. This is semantically equivalent to an infinite approval. Requirements: - `spender` cannot be the zero address."
      },
      "balanceOf(address)": {
        "details": "See {IERC20-balanceOf}."
      },
      "decimals()": {
        "details": "Returns the number of decimals used to get its user representation. For example, if `decimals` equals `2`, a balance of `505` tokens should be displayed to a user as `5.05` (`505 / 10 ** 2`). Tokens usually opt for a value of 18, imitating the relationship between Ether and Wei. This is the value {ERC20} uses, unless this function is overridden; NOTE: This information is only used for _display_ purposes: it in no way affects any of the arithmetic of the contract, including {IERC20-balanceOf} and {IERC20-transfer}."
      },
      "decreaseAllowance(address,uint256)": {
        "details": "Atomically decreases the allowance granted to `spender` by the caller. This is an alternative to {approve} that can be used as a mitigation for problems described in {IERC20-approve}. Emits an {Approval} event indicating the updated allowance. Requirements: - `spender` cannot be the zero address. - `spender` must have allowance for the caller of at least `subtractedValue`."
      },
      "increaseAllowance(address,uint256)": {
        "details": "Atomically increases the allowance granted to `spender` by the caller. This is an alternative to {approve} that can be used as a mitigation for problems described in {IERC20-approve}. Emits an {Approval} event indicating the updated allowance. Requirements: - `spender` cannot be the zero address."
      },
      "name()": {
        "details": "Returns the name of the token."
      },
      "symbol()": {
        "details": "Returns the symbol of the token, usually a shorter version of the name."
      },
      "totalSupply()": {
        "details": "See {IERC20-totalSupply}."
      },
      "transfer(address,uint256)": {
        "details": "See {IERC20-transfer}. Requirements: - `to` cannot be the zero address. - the caller must have a balance of at least `amount`."
      },
      "transferFrom(address,address,uint256)": {
        "details": "See {IERC20-transferFrom}. Emits an {Approval} event indicating the updated allowance. This is not required by the EIP. See the note at the beginning of {ERC20}. NOTE: Does not update the allowance if the current allowance is the maximum `uint256`. Requirements: - `from` and `to` cannot be the zero address. - `from` must have a balance of at least `amount`. - the caller must have allowance for ``from``'s tokens of at least `amount`."
      }
    },
    "version": 1
  },
  "userdoc": {
    "kind": "user",
    "methods": {},
    "version": 1
  }
}